{
  "_format": "hh-sol-artifact-1",
  "contractName": "mintNFT",
  "sourceName": "contracts/mintNFT.sol",
  "abi": [
    {
      "inputs": [],
      "stateMutability": "nonpayable",
      "type": "constructor"
    },
    {
      "anonymous": false,
      "inputs": [
        {
          "indexed": true,
          "internalType": "address",
          "name": "owner",
          "type": "address"
        },
        {
          "indexed": true,
          "internalType": "address",
          "name": "approved",
          "type": "address"
        },
        {
          "indexed": true,
          "internalType": "uint256",
          "name": "tokenId",
          "type": "uint256"
        }
      ],
      "name": "Approval",
      "type": "event"
    },
    {
      "anonymous": false,
      "inputs": [
        {
          "indexed": true,
          "internalType": "address",
          "name": "owner",
          "type": "address"
        },
        {
          "indexed": true,
          "internalType": "address",
          "name": "operator",
          "type": "address"
        },
        {
          "indexed": false,
          "internalType": "bool",
          "name": "approved",
          "type": "bool"
        }
      ],
      "name": "ApprovalForAll",
      "type": "event"
    },
    {
      "anonymous": false,
      "inputs": [
        {
          "indexed": false,
          "internalType": "address",
          "name": "sender",
          "type": "address"
        },
        {
          "indexed": false,
          "internalType": "uint256",
          "name": "tokenId",
          "type": "uint256"
        }
      ],
      "name": "NewShitNFTMinted",
      "type": "event"
    },
    {
      "anonymous": false,
      "inputs": [
        {
          "indexed": true,
          "internalType": "address",
          "name": "previousOwner",
          "type": "address"
        },
        {
          "indexed": true,
          "internalType": "address",
          "name": "newOwner",
          "type": "address"
        }
      ],
      "name": "OwnershipTransferred",
      "type": "event"
    },
    {
      "anonymous": false,
      "inputs": [
        {
          "indexed": true,
          "internalType": "address",
          "name": "from",
          "type": "address"
        },
        {
          "indexed": true,
          "internalType": "address",
          "name": "to",
          "type": "address"
        },
        {
          "indexed": true,
          "internalType": "uint256",
          "name": "tokenId",
          "type": "uint256"
        }
      ],
      "name": "Transfer",
      "type": "event"
    },
    {
      "inputs": [
        {
          "internalType": "address",
          "name": "to",
          "type": "address"
        },
        {
          "internalType": "uint256",
          "name": "tokenId",
          "type": "uint256"
        }
      ],
      "name": "approve",
      "outputs": [],
      "stateMutability": "nonpayable",
      "type": "function"
    },
    {
      "inputs": [
        {
          "internalType": "address",
          "name": "owner",
          "type": "address"
        }
      ],
      "name": "balanceOf",
      "outputs": [
        {
          "internalType": "uint256",
          "name": "",
          "type": "uint256"
        }
      ],
      "stateMutability": "view",
      "type": "function"
    },
    {
      "inputs": [
        {
          "internalType": "uint256",
          "name": "tokenId",
          "type": "uint256"
        }
      ],
      "name": "getApproved",
      "outputs": [
        {
          "internalType": "address",
          "name": "",
          "type": "address"
        }
      ],
      "stateMutability": "view",
      "type": "function"
    },
    {
      "inputs": [
        {
          "internalType": "address",
          "name": "owner",
          "type": "address"
        },
        {
          "internalType": "address",
          "name": "operator",
          "type": "address"
        }
      ],
      "name": "isApprovedForAll",
      "outputs": [
        {
          "internalType": "bool",
          "name": "",
          "type": "bool"
        }
      ],
      "stateMutability": "view",
      "type": "function"
    },
    {
      "inputs": [
        {
          "internalType": "string",
          "name": "_tokenURI",
          "type": "string"
        }
      ],
      "name": "mintUserNFT",
      "outputs": [],
      "stateMutability": "nonpayable",
      "type": "function"
    },
    {
      "inputs": [],
      "name": "name",
      "outputs": [
        {
          "internalType": "string",
          "name": "",
          "type": "string"
        }
      ],
      "stateMutability": "view",
      "type": "function"
    },
    {
      "inputs": [],
      "name": "owner",
      "outputs": [
        {
          "internalType": "address",
          "name": "",
          "type": "address"
        }
      ],
      "stateMutability": "view",
      "type": "function"
    },
    {
      "inputs": [
        {
          "internalType": "uint256",
          "name": "tokenId",
          "type": "uint256"
        }
      ],
      "name": "ownerOf",
      "outputs": [
        {
          "internalType": "address",
          "name": "",
          "type": "address"
        }
      ],
      "stateMutability": "view",
      "type": "function"
    },
    {
      "inputs": [],
      "name": "renounceOwnership",
      "outputs": [],
      "stateMutability": "nonpayable",
      "type": "function"
    },
    {
      "inputs": [
        {
          "internalType": "address",
          "name": "from",
          "type": "address"
        },
        {
          "internalType": "address",
          "name": "to",
          "type": "address"
        },
        {
          "internalType": "uint256",
          "name": "tokenId",
          "type": "uint256"
        }
      ],
      "name": "safeTransferFrom",
      "outputs": [],
      "stateMutability": "nonpayable",
      "type": "function"
    },
    {
      "inputs": [
        {
          "internalType": "address",
          "name": "from",
          "type": "address"
        },
        {
          "internalType": "address",
          "name": "to",
          "type": "address"
        },
        {
          "internalType": "uint256",
          "name": "tokenId",
          "type": "uint256"
        },
        {
          "internalType": "bytes",
          "name": "_data",
          "type": "bytes"
        }
      ],
      "name": "safeTransferFrom",
      "outputs": [],
      "stateMutability": "nonpayable",
      "type": "function"
    },
    {
      "inputs": [
        {
          "internalType": "address",
          "name": "operator",
          "type": "address"
        },
        {
          "internalType": "bool",
          "name": "approved",
          "type": "bool"
        }
      ],
      "name": "setApprovalForAll",
      "outputs": [],
      "stateMutability": "nonpayable",
      "type": "function"
    },
    {
      "inputs": [
        {
          "internalType": "bytes4",
          "name": "interfaceId",
          "type": "bytes4"
        }
      ],
      "name": "supportsInterface",
      "outputs": [
        {
          "internalType": "bool",
          "name": "",
          "type": "bool"
        }
      ],
      "stateMutability": "view",
      "type": "function"
    },
    {
      "inputs": [],
      "name": "symbol",
      "outputs": [
        {
          "internalType": "string",
          "name": "",
          "type": "string"
        }
      ],
      "stateMutability": "view",
      "type": "function"
    },
    {
      "inputs": [
        {
          "internalType": "uint256",
          "name": "tokenId",
          "type": "uint256"
        }
      ],
      "name": "tokenURI",
      "outputs": [
        {
          "internalType": "string",
          "name": "",
          "type": "string"
        }
      ],
      "stateMutability": "view",
      "type": "function"
    },
    {
      "inputs": [
        {
          "internalType": "address",
          "name": "from",
          "type": "address"
        },
        {
          "internalType": "address",
          "name": "to",
          "type": "address"
        },
        {
          "internalType": "uint256",
          "name": "tokenId",
          "type": "uint256"
        }
      ],
      "name": "transferFrom",
      "outputs": [],
      "stateMutability": "nonpayable",
      "type": "function"
    },
    {
      "inputs": [
        {
          "internalType": "address",
          "name": "newOwner",
          "type": "address"
        }
      ],
      "name": "transferOwnership",
      "outputs": [],
      "stateMutability": "nonpayable",
      "type": "function"
    }
  ],
  "bytecode": "0x60806040523480156200001157600080fd5b506040518060400160405280600e81526020017f636f6e66657373696f6e4e4654200000000000000000000000000000000000008152506040518060400160405280600a81526020017f636f6e66657373696f6e00000000000000000000000000000000000000000000815250816000908051906020019062000096929190620002a1565b508060019080519060200190620000af929190620002a1565b505050620000d2620000c66200010760201b60201c565b6200010f60201b60201c565b62000101604051806060016040528060248152602001620036b660249139620001d560201b62000d791760201c565b6200047e565b600033905090565b6000600760009054906101000a900473ffffffffffffffffffffffffffffffffffffffff16905081600760006101000a81548173ffffffffffffffffffffffffffffffffffffffff021916908373ffffffffffffffffffffffffffffffffffffffff1602179055508173ffffffffffffffffffffffffffffffffffffffff168173ffffffffffffffffffffffffffffffffffffffff167f8be0079c531659141344cd1fd0a4f28419497f9722a3daafe3b4186f6b6457e060405160405180910390a35050565b6200027581604051602401620001ec9190620003f5565b6040516020818303038152906040527f41304fac000000000000000000000000000000000000000000000000000000007bffffffffffffffffffffffffffffffffffffffffffffffffffffffff19166020820180517bffffffffffffffffffffffffffffffffffffffffffffffffffffffff83818316178352505050506200027860201b60201c565b50565b60008151905060006a636f6e736f6c652e6c6f679050602083016000808483855afa5050505050565b828054620002af9062000448565b90600052602060002090601f016020900481019282620002d357600085556200031f565b82601f10620002ee57805160ff19168380011785556200031f565b828001600101855582156200031f579182015b828111156200031e57825182559160200191906001019062000301565b5b5090506200032e919062000332565b5090565b5b808211156200034d57600081600090555060010162000333565b5090565b600081519050919050565b600082825260208201905092915050565b60005b838110156200038d57808201518184015260208101905062000370565b838111156200039d576000848401525b50505050565b6000601f19601f8301169050919050565b6000620003c18262000351565b620003cd81856200035c565b9350620003df8185602086016200036d565b620003ea81620003a3565b840191505092915050565b60006020820190508181036000830152620004118184620003b4565b905092915050565b7f4e487b7100000000000000000000000000000000000000000000000000000000600052602260045260246000fd5b600060028204905060018216806200046157607f821691505b6020821081141562000478576200047762000419565b5b50919050565b613228806200048e6000396000f3fe608060405234801561001057600080fd5b506004361061010b5760003560e01c806370a08231116100a2578063a22cb46511610071578063a22cb465146102a4578063b88d4fde146102c0578063c87b56dd146102dc578063e985e9c51461030c578063f2fde38b1461033c5761010b565b806370a082311461022e578063715018a61461025e5780638da5cb5b1461026857806395d89b41146102865761010b565b806323b872dd116100de57806323b872dd146101aa5780634176f387146101c657806342842e0e146101e25780636352211e146101fe5761010b565b806301ffc9a71461011057806306fdde0314610140578063081812fc1461015e578063095ea7b31461018e575b600080fd5b61012a60048036038101906101259190611e13565b610358565b6040516101379190611e5b565b60405180910390f35b61014861043a565b6040516101559190611f0f565b60405180910390f35b61017860048036038101906101739190611f67565b6104cc565b6040516101859190611fd5565b60405180910390f35b6101a860048036038101906101a3919061201c565b610551565b005b6101c460048036038101906101bf919061205c565b610669565b005b6101e060048036038101906101db91906121e4565b6106c9565b005b6101fc60048036038101906101f7919061205c565b610755565b005b61021860048036038101906102139190611f67565b610775565b6040516102259190611fd5565b60405180910390f35b6102486004803603810190610243919061222d565b610827565b6040516102559190612269565b60405180910390f35b6102666108df565b005b610270610967565b60405161027d9190611fd5565b60405180910390f35b61028e610991565b60405161029b9190611f0f565b60405180910390f35b6102be60048036038101906102b991906122b0565b610a23565b005b6102da60048036038101906102d59190612391565b610a39565b005b6102f660048036038101906102f19190611f67565b610a9b565b6040516103039190611f0f565b60405180910390f35b61032660048036038101906103219190612414565b610bed565b6040516103339190611e5b565b60405180910390f35b6103566004803603810190610351919061222d565b610c81565b005b60007f80ac58cd000000000000000000000000000000000000000000000000000000007bffffffffffffffffffffffffffffffffffffffffffffffffffffffff1916827bffffffffffffffffffffffffffffffffffffffffffffffffffffffff1916148061042357507f5b5e139f000000000000000000000000000000000000000000000000000000007bffffffffffffffffffffffffffffffffffffffffffffffffffffffff1916827bffffffffffffffffffffffffffffffffffffffffffffffffffffffff1916145b80610433575061043282610e12565b5b9050919050565b60606000805461044990612483565b80601f016020809104026020016040519081016040528092919081815260200182805461047590612483565b80156104c25780601f10610497576101008083540402835291602001916104c2565b820191906000526020600020905b8154815290600101906020018083116104a557829003601f168201915b5050505050905090565b60006104d782610e7c565b610516576040517f08c379a000000000000000000000000000000000000000000000000000000000815260040161050d90612527565b60405180910390fd5b6004600083815260200190815260200160002060009054906101000a900473ffffffffffffffffffffffffffffffffffffffff169050919050565b600061055c82610775565b90508073ffffffffffffffffffffffffffffffffffffffff168373ffffffffffffffffffffffffffffffffffffffff1614156105cd576040517f08c379a00000000000000000000000000000000000000000000000000000000081526004016105c4906125b9565b60405180910390fd5b8073ffffffffffffffffffffffffffffffffffffffff166105ec610ee8565b73ffffffffffffffffffffffffffffffffffffffff16148061061b575061061a81610615610ee8565b610bed565b5b61065a576040517f08c379a00000000000000000000000000000000000000000000000000000000081526004016106519061264b565b60405180910390fd5b6106648383610ef0565b505050565b61067a610674610ee8565b82610fa9565b6106b9576040517f08c379a00000000000000000000000000000000000000000000000000000000081526004016106b0906126dd565b60405180910390fd5b6106c4838383611087565b505050565b60006106d560086112ee565b90506106e133826112fc565b6106eb818361131a565b6106f5600861138e565b6107186040518060600160405280602581526020016131ce6025913982336113a4565b7f82c482f19394ac9c31097b1c839d1acefdbe1c6ab1ec1827e01a844bc5a131e433826040516107499291906126fd565b60405180910390a15050565b61077083838360405180602001604052806000815250610a39565b505050565b6000806002600084815260200190815260200160002060009054906101000a900473ffffffffffffffffffffffffffffffffffffffff169050600073ffffffffffffffffffffffffffffffffffffffff168173ffffffffffffffffffffffffffffffffffffffff16141561081e576040517f08c379a000000000000000000000000000000000000000000000000000000000815260040161081590612798565b60405180910390fd5b80915050919050565b60008073ffffffffffffffffffffffffffffffffffffffff168273ffffffffffffffffffffffffffffffffffffffff161415610898576040517f08c379a000000000000000000000000000000000000000000000000000000000815260040161088f9061282a565b60405180910390fd5b600360008373ffffffffffffffffffffffffffffffffffffffff1673ffffffffffffffffffffffffffffffffffffffff168152602001908152602001600020549050919050565b6108e7610ee8565b73ffffffffffffffffffffffffffffffffffffffff16610905610967565b73ffffffffffffffffffffffffffffffffffffffff161461095b576040517f08c379a000000000000000000000000000000000000000000000000000000000815260040161095290612896565b60405180910390fd5b6109656000611443565b565b6000600760009054906101000a900473ffffffffffffffffffffffffffffffffffffffff16905090565b6060600180546109a090612483565b80601f01602080910402602001604051908101604052809291908181526020018280546109cc90612483565b8015610a195780601f106109ee57610100808354040283529160200191610a19565b820191906000526020600020905b8154815290600101906020018083116109fc57829003601f168201915b5050505050905090565b610a35610a2e610ee8565b8383611509565b5050565b610a4a610a44610ee8565b83610fa9565b610a89576040517f08c379a0000000000000000000000000000000000000000000000000000000008152600401610a80906126dd565b60405180910390fd5b610a9584848484611676565b50505050565b6060610aa682610e7c565b610ae5576040517f08c379a0000000000000000000000000000000000000000000000000000000008152600401610adc90612928565b60405180910390fd5b6000600660008481526020019081526020016000208054610b0590612483565b80601f0160208091040260200160405190810160405280929190818152602001828054610b3190612483565b8015610b7e5780601f10610b5357610100808354040283529160200191610b7e565b820191906000526020600020905b815481529060010190602001808311610b6157829003601f168201915b505050505090506000610b8f6116d2565b9050600081511415610ba5578192505050610be8565b600082511115610bda578082604051602001610bc2929190612984565b60405160208183030381529060405292505050610be8565b610be3846116e9565b925050505b919050565b6000600560008473ffffffffffffffffffffffffffffffffffffffff1673ffffffffffffffffffffffffffffffffffffffff16815260200190815260200160002060008373ffffffffffffffffffffffffffffffffffffffff1673ffffffffffffffffffffffffffffffffffffffff16815260200190815260200160002060009054906101000a900460ff16905092915050565b610c89610ee8565b73ffffffffffffffffffffffffffffffffffffffff16610ca7610967565b73ffffffffffffffffffffffffffffffffffffffff1614610cfd576040517f08c379a0000000000000000000000000000000000000000000000000000000008152600401610cf490612896565b60405180910390fd5b600073ffffffffffffffffffffffffffffffffffffffff168173ffffffffffffffffffffffffffffffffffffffff161415610d6d576040517f08c379a0000000000000000000000000000000000000000000000000000000008152600401610d6490612a1a565b60405180910390fd5b610d7681611443565b50565b610e0f81604051602401610d8d9190611f0f565b6040516020818303038152906040527f41304fac000000000000000000000000000000000000000000000000000000007bffffffffffffffffffffffffffffffffffffffffffffffffffffffff19166020820180517bffffffffffffffffffffffffffffffffffffffffffffffffffffffff8381831617835250505050611790565b50565b60007f01ffc9a7000000000000000000000000000000000000000000000000000000007bffffffffffffffffffffffffffffffffffffffffffffffffffffffff1916827bffffffffffffffffffffffffffffffffffffffffffffffffffffffff1916149050919050565b60008073ffffffffffffffffffffffffffffffffffffffff166002600084815260200190815260200160002060009054906101000a900473ffffffffffffffffffffffffffffffffffffffff1673ffffffffffffffffffffffffffffffffffffffff1614159050919050565b600033905090565b816004600083815260200190815260200160002060006101000a81548173ffffffffffffffffffffffffffffffffffffffff021916908373ffffffffffffffffffffffffffffffffffffffff160217905550808273ffffffffffffffffffffffffffffffffffffffff16610f6383610775565b73ffffffffffffffffffffffffffffffffffffffff167f8c5be1e5ebec7d5bd14f71427d1e84f3dd0314c0f7b2291e5b200ac8c7c3b92560405160405180910390a45050565b6000610fb482610e7c565b610ff3576040517f08c379a0000000000000000000000000000000000000000000000000000000008152600401610fea90612aac565b60405180910390fd5b6000610ffe83610775565b90508073ffffffffffffffffffffffffffffffffffffffff168473ffffffffffffffffffffffffffffffffffffffff161480611040575061103f8185610bed565b5b8061107e57508373ffffffffffffffffffffffffffffffffffffffff16611066846104cc565b73ffffffffffffffffffffffffffffffffffffffff16145b91505092915050565b8273ffffffffffffffffffffffffffffffffffffffff166110a782610775565b73ffffffffffffffffffffffffffffffffffffffff16146110fd576040517f08c379a00000000000000000000000000000000000000000000000000000000081526004016110f490612b3e565b60405180910390fd5b600073ffffffffffffffffffffffffffffffffffffffff168273ffffffffffffffffffffffffffffffffffffffff16141561116d576040517f08c379a000000000000000000000000000000000000000000000000000000000815260040161116490612bd0565b60405180910390fd5b6111788383836117b9565b611183600082610ef0565b6001600360008573ffffffffffffffffffffffffffffffffffffffff1673ffffffffffffffffffffffffffffffffffffffff16815260200190815260200160002060008282546111d39190612c1f565b925050819055506001600360008473ffffffffffffffffffffffffffffffffffffffff1673ffffffffffffffffffffffffffffffffffffffff168152602001908152602001600020600082825461122a9190612c53565b92505081905550816002600083815260200190815260200160002060006101000a81548173ffffffffffffffffffffffffffffffffffffffff021916908373ffffffffffffffffffffffffffffffffffffffff160217905550808273ffffffffffffffffffffffffffffffffffffffff168473ffffffffffffffffffffffffffffffffffffffff167fddf252ad1be2c89b69c2b068fc378daa952ba7f163c4a11628f55a4df523b3ef60405160405180910390a46112e98383836117be565b505050565b600081600001549050919050565b6113168282604051806020016040528060008152506117c3565b5050565b61132382610e7c565b611362576040517f08c379a000000000000000000000000000000000000000000000000000000000815260040161135990612d1b565b60405180910390fd5b80600660008481526020019081526020016000209080519060200190611389929190611d04565b505050565b6001816000016000828254019250508190555050565b61143e8383836040516024016113bc93929190612d3b565b6040516020818303038152906040527fe3849f79000000000000000000000000000000000000000000000000000000007bffffffffffffffffffffffffffffffffffffffffffffffffffffffff19166020820180517bffffffffffffffffffffffffffffffffffffffffffffffffffffffff8381831617835250505050611790565b505050565b6000600760009054906101000a900473ffffffffffffffffffffffffffffffffffffffff16905081600760006101000a81548173ffffffffffffffffffffffffffffffffffffffff021916908373ffffffffffffffffffffffffffffffffffffffff1602179055508173ffffffffffffffffffffffffffffffffffffffff168173ffffffffffffffffffffffffffffffffffffffff167f8be0079c531659141344cd1fd0a4f28419497f9722a3daafe3b4186f6b6457e060405160405180910390a35050565b8173ffffffffffffffffffffffffffffffffffffffff168373ffffffffffffffffffffffffffffffffffffffff161415611578576040517f08c379a000000000000000000000000000000000000000000000000000000000815260040161156f90612dc5565b60405180910390fd5b80600560008573ffffffffffffffffffffffffffffffffffffffff1673ffffffffffffffffffffffffffffffffffffffff16815260200190815260200160002060008473ffffffffffffffffffffffffffffffffffffffff1673ffffffffffffffffffffffffffffffffffffffff16815260200190815260200160002060006101000a81548160ff0219169083151502179055508173ffffffffffffffffffffffffffffffffffffffff168373ffffffffffffffffffffffffffffffffffffffff167f17307eab39ab6107e8899845ad3d59bd9653f200f220920489ca2b5937696c31836040516116699190611e5b565b60405180910390a3505050565b611681848484611087565b61168d8484848461181e565b6116cc576040517f08c379a00000000000000000000000000000000000000000000000000000000081526004016116c390612e57565b60405180910390fd5b50505050565b606060405180602001604052806000815250905090565b60606116f482610e7c565b611733576040517f08c379a000000000000000000000000000000000000000000000000000000000815260040161172a90612ee9565b60405180910390fd5b600061173d6116d2565b9050600081511161175d5760405180602001604052806000815250611788565b80611767846119a6565b604051602001611778929190612984565b6040516020818303038152906040525b915050919050565b60008151905060006a636f6e736f6c652e6c6f679050602083016000808483855afa5050505050565b505050565b505050565b6117cd8383611b07565b6117da600084848461181e565b611819576040517f08c379a000000000000000000000000000000000000000000000000000000000815260040161181090612e57565b60405180910390fd5b505050565b600061183f8473ffffffffffffffffffffffffffffffffffffffff16611ce1565b15611999578373ffffffffffffffffffffffffffffffffffffffff1663150b7a02611868610ee8565b8786866040518563ffffffff1660e01b815260040161188a9493929190612f5e565b6020604051808303816000875af19250505080156118c657506040513d601f19601f820116820180604052508101906118c39190612fbf565b60015b611949573d80600081146118f6576040519150601f19603f3d011682016040523d82523d6000602084013e6118fb565b606091505b50600081511415611941576040517f08c379a000000000000000000000000000000000000000000000000000000000815260040161193890612e57565b60405180910390fd5b805181602001fd5b63150b7a0260e01b7bffffffffffffffffffffffffffffffffffffffffffffffffffffffff1916817bffffffffffffffffffffffffffffffffffffffffffffffffffffffff19161491505061199e565b600190505b949350505050565b606060008214156119ee576040518060400160405280600181526020017f30000000000000000000000000000000000000000000000000000000000000008152509050611b02565b600082905060005b60008214611a20578080611a0990612fec565b915050600a82611a199190613064565b91506119f6565b60008167ffffffffffffffff811115611a3c57611a3b6120b9565b5b6040519080825280601f01601f191660200182016040528015611a6e5781602001600182028036833780820191505090505b5090505b60008514611afb57600182611a879190612c1f565b9150600a85611a969190613095565b6030611aa29190612c53565b60f81b818381518110611ab857611ab76130c6565b5b60200101907effffffffffffffffffffffffffffffffffffffffffffffffffffffffffffff1916908160001a905350600a85611af49190613064565b9450611a72565b8093505050505b919050565b600073ffffffffffffffffffffffffffffffffffffffff168273ffffffffffffffffffffffffffffffffffffffff161415611b77576040517f08c379a0000000000000000000000000000000000000000000000000000000008152600401611b6e90613141565b60405180910390fd5b611b8081610e7c565b15611bc0576040517f08c379a0000000000000000000000000000000000000000000000000000000008152600401611bb7906131ad565b60405180910390fd5b611bcc600083836117b9565b6001600360008473ffffffffffffffffffffffffffffffffffffffff1673ffffffffffffffffffffffffffffffffffffffff1681526020019081526020016000206000828254611c1c9190612c53565b92505081905550816002600083815260200190815260200160002060006101000a81548173ffffffffffffffffffffffffffffffffffffffff021916908373ffffffffffffffffffffffffffffffffffffffff160217905550808273ffffffffffffffffffffffffffffffffffffffff16600073ffffffffffffffffffffffffffffffffffffffff167fddf252ad1be2c89b69c2b068fc378daa952ba7f163c4a11628f55a4df523b3ef60405160405180910390a4611cdd600083836117be565b5050565b6000808273ffffffffffffffffffffffffffffffffffffffff163b119050919050565b828054611d1090612483565b90600052602060002090601f016020900481019282611d325760008555611d79565b82601f10611d4b57805160ff1916838001178555611d79565b82800160010185558215611d79579182015b82811115611d78578251825591602001919060010190611d5d565b5b509050611d869190611d8a565b5090565b5b80821115611da3576000816000905550600101611d8b565b5090565b6000604051905090565b600080fd5b600080fd5b60007fffffffff0000000000000000000000000000000000000000000000000000000082169050919050565b611df081611dbb565b8114611dfb57600080fd5b50565b600081359050611e0d81611de7565b92915050565b600060208284031215611e2957611e28611db1565b5b6000611e3784828501611dfe565b91505092915050565b60008115159050919050565b611e5581611e40565b82525050565b6000602082019050611e706000830184611e4c565b92915050565b600081519050919050565b600082825260208201905092915050565b60005b83811015611eb0578082015181840152602081019050611e95565b83811115611ebf576000848401525b50505050565b6000601f19601f8301169050919050565b6000611ee182611e76565b611eeb8185611e81565b9350611efb818560208601611e92565b611f0481611ec5565b840191505092915050565b60006020820190508181036000830152611f298184611ed6565b905092915050565b6000819050919050565b611f4481611f31565b8114611f4f57600080fd5b50565b600081359050611f6181611f3b565b92915050565b600060208284031215611f7d57611f7c611db1565b5b6000611f8b84828501611f52565b91505092915050565b600073ffffffffffffffffffffffffffffffffffffffff82169050919050565b6000611fbf82611f94565b9050919050565b611fcf81611fb4565b82525050565b6000602082019050611fea6000830184611fc6565b92915050565b611ff981611fb4565b811461200457600080fd5b50565b60008135905061201681611ff0565b92915050565b6000806040838503121561203357612032611db1565b5b600061204185828601612007565b925050602061205285828601611f52565b9150509250929050565b60008060006060848603121561207557612074611db1565b5b600061208386828701612007565b935050602061209486828701612007565b92505060406120a586828701611f52565b9150509250925092565b600080fd5b600080fd5b7f4e487b7100000000000000000000000000000000000000000000000000000000600052604160045260246000fd5b6120f182611ec5565b810181811067ffffffffffffffff821117156121105761210f6120b9565b5b80604052505050565b6000612123611da7565b905061212f82826120e8565b919050565b600067ffffffffffffffff82111561214f5761214e6120b9565b5b61215882611ec5565b9050602081019050919050565b82818337600083830152505050565b600061218761218284612134565b612119565b9050828152602081018484840111156121a3576121a26120b4565b5b6121ae848285612165565b509392505050565b600082601f8301126121cb576121ca6120af565b5b81356121db848260208601612174565b91505092915050565b6000602082840312156121fa576121f9611db1565b5b600082013567ffffffffffffffff81111561221857612217611db6565b5b612224848285016121b6565b91505092915050565b60006020828403121561224357612242611db1565b5b600061225184828501612007565b91505092915050565b61226381611f31565b82525050565b600060208201905061227e600083018461225a565b92915050565b61228d81611e40565b811461229857600080fd5b50565b6000813590506122aa81612284565b92915050565b600080604083850312156122c7576122c6611db1565b5b60006122d585828601612007565b92505060206122e68582860161229b565b9150509250929050565b600067ffffffffffffffff82111561230b5761230a6120b9565b5b61231482611ec5565b9050602081019050919050565b600061233461232f846122f0565b612119565b9050828152602081018484840111156123505761234f6120b4565b5b61235b848285612165565b509392505050565b600082601f830112612378576123776120af565b5b8135612388848260208601612321565b91505092915050565b600080600080608085870312156123ab576123aa611db1565b5b60006123b987828801612007565b94505060206123ca87828801612007565b93505060406123db87828801611f52565b925050606085013567ffffffffffffffff8111156123fc576123fb611db6565b5b61240887828801612363565b91505092959194509250565b6000806040838503121561242b5761242a611db1565b5b600061243985828601612007565b925050602061244a85828601612007565b9150509250929050565b7f4e487b7100000000000000000000000000000000000000000000000000000000600052602260045260246000fd5b6000600282049050600182168061249b57607f821691505b602082108114156124af576124ae612454565b5b50919050565b7f4552433732313a20617070726f76656420717565727920666f72206e6f6e657860008201527f697374656e7420746f6b656e0000000000000000000000000000000000000000602082015250565b6000612511602c83611e81565b915061251c826124b5565b604082019050919050565b6000602082019050818103600083015261254081612504565b9050919050565b7f4552433732313a20617070726f76616c20746f2063757272656e74206f776e6560008201527f7200000000000000000000000000000000000000000000000000000000000000602082015250565b60006125a3602183611e81565b91506125ae82612547565b604082019050919050565b600060208201905081810360008301526125d281612596565b9050919050565b7f4552433732313a20617070726f76652063616c6c6572206973206e6f74206f7760008201527f6e6572206e6f7220617070726f76656420666f7220616c6c0000000000000000602082015250565b6000612635603883611e81565b9150612640826125d9565b604082019050919050565b6000602082019050818103600083015261266481612628565b9050919050565b7f4552433732313a207472616e736665722063616c6c6572206973206e6f74206f60008201527f776e6572206e6f7220617070726f766564000000000000000000000000000000602082015250565b60006126c7603183611e81565b91506126d28261266b565b604082019050919050565b600060208201905081810360008301526126f6816126ba565b9050919050565b60006040820190506127126000830185611fc6565b61271f602083018461225a565b9392505050565b7f4552433732313a206f776e657220717565727920666f72206e6f6e657869737460008201527f656e7420746f6b656e0000000000000000000000000000000000000000000000602082015250565b6000612782602983611e81565b915061278d82612726565b604082019050919050565b600060208201905081810360008301526127b181612775565b9050919050565b7f4552433732313a2062616c616e636520717565727920666f7220746865207a6560008201527f726f206164647265737300000000000000000000000000000000000000000000602082015250565b6000612814602a83611e81565b915061281f826127b8565b604082019050919050565b6000602082019050818103600083015261284381612807565b9050919050565b7f4f776e61626c653a2063616c6c6572206973206e6f7420746865206f776e6572600082015250565b6000612880602083611e81565b915061288b8261284a565b602082019050919050565b600060208201905081810360008301526128af81612873565b9050919050565b7f45524337323155524953746f726167653a2055524920717565727920666f722060008201527f6e6f6e6578697374656e7420746f6b656e000000000000000000000000000000602082015250565b6000612912603183611e81565b915061291d826128b6565b604082019050919050565b6000602082019050818103600083015261294181612905565b9050919050565b600081905092915050565b600061295e82611e76565b6129688185612948565b9350612978818560208601611e92565b80840191505092915050565b60006129908285612953565b915061299c8284612953565b91508190509392505050565b7f4f776e61626c653a206e6577206f776e657220697320746865207a65726f206160008201527f6464726573730000000000000000000000000000000000000000000000000000602082015250565b6000612a04602683611e81565b9150612a0f826129a8565b604082019050919050565b60006020820190508181036000830152612a33816129f7565b9050919050565b7f4552433732313a206f70657261746f7220717565727920666f72206e6f6e657860008201527f697374656e7420746f6b656e0000000000000000000000000000000000000000602082015250565b6000612a96602c83611e81565b9150612aa182612a3a565b604082019050919050565b60006020820190508181036000830152612ac581612a89565b9050919050565b7f4552433732313a207472616e736665722066726f6d20696e636f72726563742060008201527f6f776e6572000000000000000000000000000000000000000000000000000000602082015250565b6000612b28602583611e81565b9150612b3382612acc565b604082019050919050565b60006020820190508181036000830152612b5781612b1b565b9050919050565b7f4552433732313a207472616e7366657220746f20746865207a65726f2061646460008201527f7265737300000000000000000000000000000000000000000000000000000000602082015250565b6000612bba602483611e81565b9150612bc582612b5e565b604082019050919050565b60006020820190508181036000830152612be981612bad565b9050919050565b7f4e487b7100000000000000000000000000000000000000000000000000000000600052601160045260246000fd5b6000612c2a82611f31565b9150612c3583611f31565b925082821015612c4857612c47612bf0565b5b828203905092915050565b6000612c5e82611f31565b9150612c6983611f31565b9250827fffffffffffffffffffffffffffffffffffffffffffffffffffffffffffffffff03821115612c9e57612c9d612bf0565b5b828201905092915050565b7f45524337323155524953746f726167653a2055524920736574206f66206e6f6e60008201527f6578697374656e7420746f6b656e000000000000000000000000000000000000602082015250565b6000612d05602e83611e81565b9150612d1082612ca9565b604082019050919050565b60006020820190508181036000830152612d3481612cf8565b9050919050565b60006060820190508181036000830152612d558186611ed6565b9050612d64602083018561225a565b612d716040830184611fc6565b949350505050565b7f4552433732313a20617070726f766520746f2063616c6c657200000000000000600082015250565b6000612daf601983611e81565b9150612dba82612d79565b602082019050919050565b60006020820190508181036000830152612dde81612da2565b9050919050565b7f4552433732313a207472616e7366657220746f206e6f6e20455243373231526560008201527f63656976657220696d706c656d656e7465720000000000000000000000000000602082015250565b6000612e41603283611e81565b9150612e4c82612de5565b604082019050919050565b60006020820190508181036000830152612e7081612e34565b9050919050565b7f4552433732314d657461646174613a2055524920717565727920666f72206e6f60008201527f6e6578697374656e7420746f6b656e0000000000000000000000000000000000602082015250565b6000612ed3602f83611e81565b9150612ede82612e77565b604082019050919050565b60006020820190508181036000830152612f0281612ec6565b9050919050565b600081519050919050565b600082825260208201905092915050565b6000612f3082612f09565b612f3a8185612f14565b9350612f4a818560208601611e92565b612f5381611ec5565b840191505092915050565b6000608082019050612f736000830187611fc6565b612f806020830186611fc6565b612f8d604083018561225a565b8181036060830152612f9f8184612f25565b905095945050505050565b600081519050612fb981611de7565b92915050565b600060208284031215612fd557612fd4611db1565b5b6000612fe384828501612faa565b91505092915050565b6000612ff782611f31565b91507fffffffffffffffffffffffffffffffffffffffffffffffffffffffffffffffff82141561302a57613029612bf0565b5b600182019050919050565b7f4e487b7100000000000000000000000000000000000000000000000000000000600052601260045260246000fd5b600061306f82611f31565b915061307a83611f31565b92508261308a57613089613035565b5b828204905092915050565b60006130a082611f31565b91506130ab83611f31565b9250826130bb576130ba613035565b5b828206905092915050565b7f4e487b7100000000000000000000000000000000000000000000000000000000600052603260045260246000fd5b7f4552433732313a206d696e7420746f20746865207a65726f2061646472657373600082015250565b600061312b602083611e81565b9150613136826130f5565b602082019050919050565b6000602082019050818103600083015261315a8161311e565b9050919050565b7f4552433732313a20746f6b656e20616c7265616479206d696e74656400000000600082015250565b6000613197601c83611e81565b91506131a282613161565b602082019050919050565b600060208201905081810360008301526131c68161318a565b905091905056fe416e204e465420772f20494420257320686173206265656e206d696e74656420746f202573a2646970667358221220f32d65c6eb3d311d74b75450a910ed3f811fd71b16395bf174869ef59d12593164736f6c634300080a00335468697320697320636f6e66657373696f6e4e465420736d61727420636f6e7472616374",
  "linkReferences": {},
  "deployedLinkReferences": {}
}